{
  "_format": "hh-sol-artifact-1",
  "contractName": "WavePortal",
  "sourceName": "contracts/WavePortal.sol",
  "abi": [
    {
      "inputs": [],
      "stateMutability": "payable",
      "type": "constructor"
    },
    {
      "anonymous": false,
      "inputs": [
        {
          "indexed": true,
          "internalType": "address",
          "name": "from",
          "type": "address"
        },
        {
          "indexed": false,
          "internalType": "uint256",
          "name": "timestamp",
          "type": "uint256"
        },
        {
          "indexed": false,
          "internalType": "string",
          "name": "message",
          "type": "string"
        }
      ],
      "name": "NewWave",
      "type": "event"
    },
    {
      "inputs": [
        {
          "internalType": "address",
          "name": "",
          "type": "address"
        }
      ],
      "name": "accessCount",
      "outputs": [
        {
          "internalType": "uint256",
          "name": "",
          "type": "uint256"
        }
      ],
      "stateMutability": "view",
      "type": "function"
    },
    {
      "inputs": [],
      "name": "countAccess",
      "outputs": [],
      "stateMutability": "nonpayable",
      "type": "function"
    },
    {
      "inputs": [
        {
          "internalType": "address",
          "name": "walletAddress",
          "type": "address"
        }
      ],
      "name": "getAccessCount",
      "outputs": [
        {
          "internalType": "uint256",
          "name": "",
          "type": "uint256"
        }
      ],
      "stateMutability": "view",
      "type": "function"
    },
    {
      "inputs": [],
      "name": "getAllWaves",
      "outputs": [
        {
          "components": [
            {
              "internalType": "address",
              "name": "waver",
              "type": "address"
            },
            {
              "internalType": "string",
              "name": "message",
              "type": "string"
            },
            {
              "internalType": "uint256",
              "name": "timestamp",
              "type": "uint256"
            }
          ],
          "internalType": "struct WavePortal.Wave[]",
          "name": "",
          "type": "tuple[]"
        }
      ],
      "stateMutability": "view",
      "type": "function"
    },
    {
      "inputs": [],
      "name": "getTotalWaves",
      "outputs": [
        {
          "internalType": "uint256",
          "name": "",
          "type": "uint256"
        }
      ],
      "stateMutability": "view",
      "type": "function"
    },
    {
      "inputs": [
        {
          "internalType": "address",
          "name": "",
          "type": "address"
        }
      ],
      "name": "lastWavedAt",
      "outputs": [
        {
          "internalType": "uint256",
          "name": "",
          "type": "uint256"
        }
      ],
      "stateMutability": "view",
      "type": "function"
    },
    {
      "inputs": [
        {
          "internalType": "string",
          "name": "_message",
          "type": "string"
        }
      ],
      "name": "wave",
      "outputs": [],
      "stateMutability": "nonpayable",
      "type": "function"
    }
  ],
  "bytecode": "0x6080604052620000336040518060600160405280602d8152602001620016bd602d91396200005b60201b620007dc1760201c565b60644442620000439190620001a8565b6200004f919062000245565b600181905550620002ec565b620000fb8160405160240162000072919062000168565b6040516020818303038152906040527f41304fac000000000000000000000000000000000000000000000000000000007bffffffffffffffffffffffffffffffffffffffffffffffffffffffff19166020820180517bffffffffffffffffffffffffffffffffffffffffffffffffffffffff8381831617835250505050620000fe60201b60201c565b50565b60008151905060006a636f6e736f6c652e6c6f679050602083016000808483855afa5050505050565b600062000134826200018c565b62000140818562000197565b9350620001528185602086016200020f565b6200015d81620002db565b840191505092915050565b6000602082019050818103600083015262000184818462000127565b905092915050565b600081519050919050565b600082825260208201905092915050565b6000620001b58262000205565b9150620001c28362000205565b9250827fffffffffffffffffffffffffffffffffffffffffffffffffffffffffffffffff03821115620001fa57620001f96200027d565b5b828201905092915050565b6000819050919050565b60005b838110156200022f57808201518184015260208101905062000212565b838111156200023f576000848401525b50505050565b6000620002528262000205565b91506200025f8362000205565b925082620002725762000271620002ac565b5b828206905092915050565b7f4e487b7100000000000000000000000000000000000000000000000000000000600052601160045260246000fd5b7f4e487b7100000000000000000000000000000000000000000000000000000000600052601260045260246000fd5b6000601f19601f8301169050919050565b6113c180620002fc6000396000f3fe608060405234801561001057600080fd5b506004361061007d5760003560e01c8063976c66021161005b578063976c6602146100d85780639a2cdc0814610108578063a42a466314610126578063bd43a908146101565761007d565b80630d3fc27814610082578063449d46c01461008c5780637d91220b146100a8575b600080fd5b61008a610174565b005b6100a660048036038101906100a19190610bbe565b6101cb565b005b6100c260048036038101906100bd9190610b95565b6105c7565b6040516100cf919061100a565b60405180910390f35b6100f260048036038101906100ed9190610b95565b6105df565b6040516100ff919061100a565b60405180910390f35b610110610628565b60405161011d919061100a565b60405180910390f35b610140600480360381019061013b9190610b95565b610673565b60405161014d919061100a565b60405180910390f35b61015e61068b565b60405161016b9190610ec1565b60405180910390f35b600260003373ffffffffffffffffffffffffffffffffffffffff1673ffffffffffffffffffffffffffffffffffffffff16815260200190815260200160002060008154809291906101c49061122d565b9190505550565b42610384600460003373ffffffffffffffffffffffffffffffffffffffff1673ffffffffffffffffffffffffffffffffffffffff168152602001908152602001600020546102199190611127565b10610259576040517f08c379a000000000000000000000000000000000000000000000000000000000815260040161025090610fca565b60405180910390fd5b42600460003373ffffffffffffffffffffffffffffffffffffffff1673ffffffffffffffffffffffffffffffffffffffff1681526020019081526020016000208190555060016000808282546102af9190611127565b925050819055506102f66040518060400160405280601c81526020017f25732072656d6574656e74657321202573206d656e736167656e7320000000008152503383610875565b600360405180606001604052803373ffffffffffffffffffffffffffffffffffffffff16815260200183815260200142815250908060018154018082558091505060019003906000526020600020906003020160009091909190915060008201518160000160006101000a81548173ffffffffffffffffffffffffffffffffffffffff021916908373ffffffffffffffffffffffffffffffffffffffff16021790555060208201518160010190805190602001906103b5929190610a75565b50604082015181600201555050606460015442446103d39190611127565b6103dd9190611127565b6103e79190611276565b60018190555061042e6040518060400160405280601681526020017f232072616e646f6d69636f2067657261646f3a20256400000000000000000000815250600154610914565b603260015411610574576104776040518060400160405280600a81526020017f25732067616e686f752100000000000000000000000000000000000000000000815250336109b0565b6000655af3107a40009050478111156104c5576040517f08c379a00000000000000000000000000000000000000000000000000000000081526004016104bc90610faa565b60405180910390fd5b60003373ffffffffffffffffffffffffffffffffffffffff16826040516104eb90610eac565b60006040518083038185875af1925050503d8060008114610528576040519150601f19603f3d011682016040523d82523d6000602084013e61052d565b606091505b5050905080610571576040517f08c379a000000000000000000000000000000000000000000000000000000000815260040161056890610fea565b60405180910390fd5b50505b3373ffffffffffffffffffffffffffffffffffffffff167f5f7e16dc676677766a70e9c5628aa6c54ddb8b6e5188e2ae1e1f17f1ffbea71642836040516105bc929190611025565b60405180910390a250565b60026020528060005260406000206000915090505481565b6000600260008373ffffffffffffffffffffffffffffffffffffffff1673ffffffffffffffffffffffffffffffffffffffff168152602001908152602001600020549050919050565b600061066b6040518060400160405280601d81526020017f54656d6f73202573206d656e736167656e73206e6f20746f74616c2021000000815250600054610914565b600054905090565b60046020528060005260406000206000915090505481565b60606003805480602002602001604051908101604052809291908181526020016000905b828210156107d357838290600052602060002090600302016040518060600160405290816000820160009054906101000a900473ffffffffffffffffffffffffffffffffffffffff1673ffffffffffffffffffffffffffffffffffffffff1673ffffffffffffffffffffffffffffffffffffffff168152602001600182018054610738906111fb565b80601f0160208091040260200160405190810160405280929190818152602001828054610764906111fb565b80156107b15780601f10610786576101008083540402835291602001916107b1565b820191906000526020600020905b81548152906001019060200180831161079457829003601f168201915b50505050508152602001600282015481525050815260200190600101906106af565b50505050905090565b610872816040516024016107f09190610ee3565b6040516020818303038152906040527f41304fac000000000000000000000000000000000000000000000000000000007bffffffffffffffffffffffffffffffffffffffffffffffffffffffff19166020820180517bffffffffffffffffffffffffffffffffffffffffffffffffffffffff8381831617835250505050610a4c565b50565b61090f83838360405160240161088d93929190610f35565b6040516020818303038152906040527fe0e9ad4f000000000000000000000000000000000000000000000000000000007bffffffffffffffffffffffffffffffffffffffffffffffffffffffff19166020820180517bffffffffffffffffffffffffffffffffffffffffffffffffffffffff8381831617835250505050610a4c565b505050565b6109ac828260405160240161092a929190610f7a565b6040516020818303038152906040527f9710a9d0000000000000000000000000000000000000000000000000000000007bffffffffffffffffffffffffffffffffffffffffffffffffffffffff19166020820180517bffffffffffffffffffffffffffffffffffffffffffffffffffffffff8381831617835250505050610a4c565b5050565b610a4882826040516024016109c6929190610f05565b6040516020818303038152906040527f319af333000000000000000000000000000000000000000000000000000000007bffffffffffffffffffffffffffffffffffffffffffffffffffffffff19166020820180517bffffffffffffffffffffffffffffffffffffffffffffffffffffffff8381831617835250505050610a4c565b5050565b60008151905060006a636f6e736f6c652e6c6f679050602083016000808483855afa5050505050565b828054610a81906111fb565b90600052602060002090601f016020900481019282610aa35760008555610aea565b82601f10610abc57805160ff1916838001178555610aea565b82800160010185558215610aea579182015b82811115610ae9578251825591602001919060010190610ace565b5b509050610af79190610afb565b5090565b5b80821115610b14576000816000905550600101610afc565b5090565b6000610b2b610b2684611086565b611055565b905082815260208101848484011115610b4357600080fd5b610b4e8482856111b9565b509392505050565b600081359050610b6581611374565b92915050565b600082601f830112610b7c57600080fd5b8135610b8c848260208601610b18565b91505092915050565b600060208284031215610ba757600080fd5b6000610bb584828501610b56565b91505092915050565b600060208284031215610bd057600080fd5b600082013567ffffffffffffffff811115610bea57600080fd5b610bf684828501610b6b565b91505092915050565b6000610c0b8383610e3e565b905092915050565b610c1c8161117d565b82525050565b610c2b8161117d565b82525050565b6000610c3c826110c6565b610c4681856110e9565b935083602082028501610c58856110b6565b8060005b85811015610c945784840389528151610c758582610bff565b9450610c80836110dc565b925060208a01995050600181019050610c5c565b50829750879550505050505092915050565b6000610cb1826110d1565b610cbb8185611105565b9350610ccb8185602086016111c8565b610cd481611363565b840191505092915050565b6000610cea826110d1565b610cf48185611116565b9350610d048185602086016111c8565b610d0d81611363565b840191505092915050565b6000610d25603383611116565b91507f54656e74616e646f207361636172206d6169732064696e686569726f2071756560008301527f206f20636f6e747261746f20706f737375692e000000000000000000000000006020830152604082019050919050565b6000610d8b600a83611116565b91507f4573706572652031356d000000000000000000000000000000000000000000006000830152602082019050919050565b6000610dcb6000836110fa565b9150600082019050919050565b6000610de5602583611116565b91507f46616c686f7520656d2073616361722064696e686569726f20646f20636f6e7460008301527f7261746f2e0000000000000000000000000000000000000000000000000000006020830152604082019050919050565b6000606083016000830151610e566000860182610c13565b5060208301518482036020860152610e6e8282610ca6565b9150506040830151610e836040860182610e8e565b508091505092915050565b610e97816111af565b82525050565b610ea6816111af565b82525050565b6000610eb782610dbe565b9150819050919050565b60006020820190508181036000830152610edb8184610c31565b905092915050565b60006020820190508181036000830152610efd8184610cdf565b905092915050565b60006040820190508181036000830152610f1f8185610cdf565b9050610f2e6020830184610c22565b9392505050565b60006060820190508181036000830152610f4f8186610cdf565b9050610f5e6020830185610c22565b8181036040830152610f708184610cdf565b9050949350505050565b60006040820190508181036000830152610f948185610cdf565b9050610fa36020830184610e9d565b9392505050565b60006020820190508181036000830152610fc381610d18565b9050919050565b60006020820190508181036000830152610fe381610d7e565b9050919050565b6000602082019050818103600083015261100381610dd8565b9050919050565b600060208201905061101f6000830184610e9d565b92915050565b600060408201905061103a6000830185610e9d565b818103602083015261104c8184610cdf565b90509392505050565b6000604051905081810181811067ffffffffffffffff8211171561107c5761107b611334565b5b8060405250919050565b600067ffffffffffffffff8211156110a1576110a0611334565b5b601f19601f8301169050602081019050919050565b6000819050602082019050919050565b600081519050919050565b600081519050919050565b6000602082019050919050565b600082825260208201905092915050565b600081905092915050565b600082825260208201905092915050565b600082825260208201905092915050565b6000611132826111af565b915061113d836111af565b9250827fffffffffffffffffffffffffffffffffffffffffffffffffffffffffffffffff03821115611172576111716112a7565b5b828201905092915050565b60006111888261118f565b9050919050565b600073ffffffffffffffffffffffffffffffffffffffff82169050919050565b6000819050919050565b82818337600083830152505050565b60005b838110156111e65780820151818401526020810190506111cb565b838111156111f5576000848401525b50505050565b6000600282049050600182168061121357607f821691505b6020821081141561122757611226611305565b5b50919050565b6000611238826111af565b91507fffffffffffffffffffffffffffffffffffffffffffffffffffffffffffffffff82141561126b5761126a6112a7565b5b600182019050919050565b6000611281826111af565b915061128c836111af565b92508261129c5761129b6112d6565b5b828206905092915050565b7f4e487b7100000000000000000000000000000000000000000000000000000000600052601160045260246000fd5b7f4e487b7100000000000000000000000000000000000000000000000000000000600052601260045260246000fd5b7f4e487b7100000000000000000000000000000000000000000000000000000000600052602260045260246000fd5b7f4e487b7100000000000000000000000000000000000000000000000000000000600052604160045260246000fd5b6000601f19601f8301169050919050565b61137d8161117d565b811461138857600080fd5b5056fea2646970667358221220bb677c27cc5b07957ddd79f732880e31ac41a592122c0ae03283455ff7bf502964736f6c63430008000033556562612c20657520736f7520756d20636f6e747261746f206520657520736f7520696e74656c6967656e7465",
  "linkReferences": {},
  "deployedLinkReferences": {}
}